:100000000C949A050C94E1050C94E1050C94E1051F
:100010000C94E1050C94E1050C94E1050C94E105C8
:100020000C94E1050C94E1050C94830D0C94560E90
:100030000C949C1D0C94E1050C94E1050C94E105D5
:100040000C94E1050C94E1050C94E1050C94E10598
:100050000C94E1050C94101E0C94E1050C94E10540
:100060000C94E1050C94E1050C94E1050C94E10578
:100070000C94E1050C94E1050C94E1050C94E10568
:100080000C94E1050C94E1050C94E1050C94E10558
:100090000C94E1050C94E1050C94E1050C94E10548
:1000A0000C94E1050C94E1050C94E10548474645A4
:1000B00044434241403F3E003D3C3B3A00294B4ACD
:1000C00049002A2E2D27262524232221201F1E35D4
:1000D0004E4D4C0031302F13120C181C1715081AF6
:1000E000142B00000000280034330F0E0D0B0A09FA
:1000F0000716043900520000E100383736101105A8
:1001000019061B1D00E54F5150E47600C0E60000C3
:10011000002C0000E200E3E0010101010101010106
:1001200001010100010101010001010101000101C2
:1001300001010101010101010101010101010100B0
:1001400001010101010101010101010101010000A1
:100150000000010001010101010101010101010192
:100160000001000001000101010101010101010183
:100170000001A901AA010100010100000001000025
:10018000010001010A002530325800626F756E636C
:1001900065213A20004B6579626F61726420737447
:1001A0006172742E0A0055534220636F6E66696750
:1001B000757265642E0A000D0A696E69740A005B27
:1001C000445D005B435D000A034700480036003091
:1001D00000000012036700650065006B00680061A5
:1001E0000063006B000000040309040902740004AA
:1001F0000100A032090400000103010100092111DE
:100200000100012240000705810308000A090401DA
:10021000000103010200092111010001224D000724
:1002200005820308000A0904020001030000000916
:1002300021110100012236000705830308000A0985
:100240000403000203000000092111010001222221
:1002500000070584032000010705040320000112A4
:1002600001100100000008EDFE60600100010200C5
:10027000010631FF0974A1010975150026FF0095DB
:1002800020750881020976150026FF009520750863
:100290009102C005010980A101850216810026B7DF
:1002A000001A81002AB700751095018100C0050C65
:1002B0000901A1018503160100269C021A01002AEA
:1002C0009C02751095018100C005010902A1010978
:1002D00001A10005091901290515002501950575DC
:1002E000018102950175038101050109300931156C
:1002F00081257F95027508810609381581257F952E
:100300000175088106050C0A38021581257F9501C3
:1003100075088106C0C005010906A101050719E09D
:1003200029E71500250195087501810295017508D9
:1003300081010508190129059505750191029501AD
:10034000750391010507190029FF150026FF009587
:100350000675088100C0636F6E73756D65723A2013
:10036000253034580A0073797374656D3A2025304E
:1003700034580A000A002530325820006B65796233
:100380006F6172643A20004C45443A20253032585F
:100390000A00253032583A20253033326225730A5C
:1003A00000722F63203031323334353637383941DB
:1003B000424344454630313233343536373839419B
:1003C00042434445460A00646F6E652E0A00626F20
:1003D0006F746D61676963207363616E3A202E2EBE
:1003E0002E2000290A002575002F002575005D28A4
:1003F0000025640020002564002000256400200002
:100400002564007C0025303258006D6F7573656B74
:100410006579205B62746E7C782079207620685D37
:10042000287265702F61636C293A205B006D6B5FE9
:10043000776865656C5F74696D655F746F5F6D612A
:1004400078203D2025640A006D6B5F776865656CD8
:100450005F6D61785F7370656564203D2025640A77
:10046000006D6B5F74696D655F746F5F6D6178209F
:100470003D2025640A006D6B5F6D61785F73706568
:100480006564203D2025640A006D6B5F696E7465AC
:100490007276616C203D2025640A006D6B5F646597
:1004A0006C6179203D2025640A006D6B5F7768657B
:1004B000656C5F74696D655F746F5F6D6178203D19
:1004C0002025640A006D6B5F776865656C5F6D6100
:1004D000785F7370656564203D2025640A006D6B4C
:1004E0005F74696D655F746F5F6D6178203D202575
:1004F000640A006D6B5F6D61785F73706565642081
:100500003D2025640A006D6B5F696E7465727661CB
:100510006C203D2025640A006D6B5F64656C617919
:10052000203D2025640A000A00257500363A207710
:100530006865656C5F74696D655F746F5F6D617828
:100540003A20000A00257500353A20776865656C09
:100550005F6D61785F73706565643A20000A0025FD
:100560007500343A2074696D655F746F5F6D6178F2
:100570003A20000A00257500333A206D61785F73D8
:10058000706565643A20000A00257500323A2069DA
:100590006E74657276616C286D73293A20000A00CA
:1005A000257500313A2064656C6179282A31306DF7
:1005B00073293A20000A092D2056616C7565732055
:1005C0002D0A004D3E004D25643E20003F0073651E
:1005D000742064656661756C740A00433E20007780
:1005E000686572652064656C74613A206375727326
:1005F0006F723D25642C20776865656C3D25640A23
:1006000053656520687474703A2F2F656E2E776974
:100610006B6970656469612E6F72672F77696B69AA
:100620002F4D6F7573655F6B6579730A000A092D2D
:10063000204D6F7573656B6579202D0A4553432FE7
:10064000713A09717569740A313A0964656C6179A6
:10065000282A31306D73290A323A09696E7465723D
:1006600076616C286D73290A333A096D61785F737E
:10067000706565640A343A0974696D655F746F5F0B
:100680006D61780A353A09776865656C5F6D6178E8
:100690005F73706565640A363A09776865656C5FF3
:1006A00074696D655F746F5F6D61780A0A703A09ED
:1006B0007072696E742076616C7565730A643A09AC
:1006C0007365742064656661756C74730A75703A3D
:1006D000092B310A646F776E3A092D310A706775FC
:1006E000703A092B31300A7067646F776E3A092DC2
:1006F00031300A0A7370656564203D2064656C744E
:1007000061202A206D61785F7370656564202A20FE
:1007100028726570656174202F2074696D655F743F
:100720006F5F6D6178290A003F004D3E2000433E17
:1007300020004C25640A000A092D20436F6E736F58
:100740006C65202D0A4553432F713A097175697400
:100750000A6D3A096D6F7573656B65790A000A0950
:100760002D204D61676963202D0A643A0964656232
:1007700075670A783A096465627567206D617472FD
:1007800069780A6B3A096465627567206B657962FE
:100790006F6172640A6D3A096465627567206D6FF6
:1007A0007573650A763A0976657273696F6E0A73B6
:1007B0003A097374617475730A633A09636F6E73EF
:1007C0006F6C65206D6F64650A302D343A096C6179
:1007D000796572302D34284631302D4634290A503F
:1007E0006175733A09626F6F746C6F616465720A48
:1007F000653A09656570726F6D0A000A002575001B
:100800002E6E6B726F3A20000A002575002E7377EA
:1008100061705F6261636B736C6173685F62616377
:100820006B73706163653A20000A002575002E73B2
:100830007761705F67726176655F6573633A200008
:100840000A002575002E6E6F5F6775693A20000AF1
:10085000002575002E737761705F72616C745F7232
:100860006775693A20000A002575002E737761705C
:100870005F6C616C745F6C6775693A20000A0025D3
:1008800075002E636170736C6F636B5F746F5F6371
:100890006F6E74726F6C3A20000A002575002E731B
:1008A0007761705F636F6E74726F6C5F636170739A
:1008B0006C6F636B3A20000A0025303258006B657C
:1008C000796D61705F636F6E6669672E7261773AEA
:1008D00020000A002575002E6D6F7573653A2000A3
:1008E0000A002575002E6B6579626F6172643A208B
:1008F000000A002575002E6D61747269783A200037
:100900000A002575002E656E61626C653A20000A4A
:1009100000253032580064656275675F636F6E66EC
:1009200069672E7261773A20000A002575006465B8
:100930006661756C745F6C617965723A20003F0086
:1009400074696D65725F72656164333228293A207B
:100950002530346C580A006B6579626F6172645F90
:1009600069646C653A2025580A006B6579626F618D
:1009700072645F70726F746F636F6C3A2025580AEF
:1009800000686F73745F6B6579626F6172645F6C2E
:1009900065647328293A2025580A000A092D205336
:1009A0007461747573202D0A004743433A20372E33
:1009B000322E30204156522D4C4942433A20322E9D
:1009C000302E30204156525F415243483A206176E2
:1009D00072350A004F5054494F4E533A204C5546F9
:1009E0004120424F4F544D41474943204D4F5553AD
:1009F000454B45592045585452414B455920434F8A
:100A00004E534F4C4520434F4D4D414E44203430C2
:100A100039360A004255494C443A20756E6B6E6F68
:100A2000776E202830313A30353A343720417567B7
:100A30002032382032303137290A005649443A20D2
:100A4000307846454544286765656B6861636B2966
:100A5000205049443A2030783630363028474836DE
:100A60003029205645523A203078303030310A0053
:100A7000444553433A20742E6D2E6B2E206B6579BE
:100A8000626F617264206669726D7761726520665B
:100A90006F7220474836300A000A092D20566572C9
:100AA00073696F6E202D0A000A6D6F7573653A20A9
:100AB0006F66660A000A6D6F7573653A206F6E0A7D
:100AC000000A6B6579626F6172643A206F66660A2C
:100AD000000A6B6579626F6172643A206F6E0A007A
:100AE0000A6D61747269783A206F66660A000A6D51
:100AF00061747269783A206F6E0A000A64656275E3
:100B0000673A206F6E0A000A64656275673A206F63
:100B100066660A000A0A626F6F746C6F61646572C0
:100B20002E2E2E2000433E20006565636F6E6669A1
:100B3000673A0A0011241FBECFEFDAE0DEBFCDBF57
:100B400004B603FE27C08091690290916A02A091C9
:100B50006B02B0916C028730904BA740B04BD1F440
:100B60001092690210926A0210926B0210926C024B
:100B700014BE84B7877F84BF0FB6F894A895809180
:100B80006000886180936000109260000FBEE0E01A
:100B9000F8E3099511E0A0E0B1E0E6E9F4E502C070
:100BA00005900D92A433B107D9F722E0A4E3B1E098
:100BB00001C01D92A936B207E1F70E94B90A0C9450
:100BC000492A0C940000FF93EF93E0913401F091D7
:100BD0003501309709F00995EF91FF910895FC01D7
:100BE0008591803011F0EFDFFBCF0895FF27E0E221
:100BF00030E247FF0CC0419597FF09C0EDE26095D8
:100C0000709580959095611D711D811D911D27FF27
:100C100002C0219530E350E2AA27660F771F881F94
:100C2000991FAA1FA41710F0A41B63955A95A9F742
:100C3000AA3008F0A95FA05DAF93F3956115710527
:100C40008105910541F7ED3211F4EF93F395F21719
:100C500018F43F93F395FBCF8F91B5DFFA95E1F749
:100C60000895E991F9918591803021F0853219F04C
:100C7000AADFF9CF089520E0E89455915532C1F3E9
:100C8000503311F4689455915A3348F4505390F30B
:100C9000220F022E220F220F200D250FF4CF0EF46B
:100CA000219589919991533619F3533729F1533589
:100CB00059F1BC0188279927E8945C3621F4899181
:100CC000999168945591543639F446EF7EF077FF48
:100CD0000DC08FEF9FEF0AC055374AE039F0583505
:100CE00040E121F0523642E009F00895FF93EF937E
:100CF0007DDFEF91FF91B7CFFF93EF93FC018191DF
:100D00008030B9F360DFFBCFFF93EF9368DFF1CF63
:100D1000DF93CF93CDB7DEB72596A3DFCF91DF91D9
:100D2000089580B38C7080BB81B38C7081BB0895B3
:100D300085B7806885BF85B7806885BF0E949106AA
:100D400084B114B885B18FEF85B98AB180748AB93E
:100D50008BB18F6B8BB987B18F7387B988B1806C7A
:100D600088B96E98769AEEE4F1E0A6E3B1E01192CC
:100D70001192119211921D921D921D921D9281E06D
:100D8000E636F807A1F70895EF92FF921F93CF93ED
:100D9000DF93C6E3D1E07E0110E0133009F42BC1EC
:100DA00008F01BC1113009F420C1123009F420C130
:100DB000809A889880EA8A95F1F783B18295869522
:100DC0008695837091E0892790E0B0E0A0E0817083
:100DD0009927AA27BB271D9914C142E050E060E083
:100DE00070E0842B952BA62BB72B1C990EC144E0E9
:100DF00050E060E070E0842B952BA62BB72B4F9929
:100E000008C148E050E060E070E0842B952BA62BF1
:100E1000B72B4C9902C140E150E060E070E0842BB8
:100E2000952BA62BB72B4D99FCC040E250E060E01B
:100E300070E0842B952BA62BB72B3799F6C040E496
:100E400050E060E070E0842B952BA62BB72B3699F1
:100E5000F0C040E850E060E070E0842B952BA62BBA
:100E6000B72B4B99EAC040E051E060E070E0842B82
:100E7000952BA62BB72B4A99E4C040E052E060E0E6
:100E800070E0842B952BA62BB72B4999DEC040E050
:100E900054E060E070E0842B952BA62BB72B48998B
:100EA000D8C040E058E060E070E0842B952BA62B82
:100EB000B72B1F99D2C040E050E160E070E0842B76
:100EC000952BA62BB72B1B99CCC040E050E260E0DD
:100ED00070E0842B952BA62BB72B1A99C6C040E047
:100EE00050E460E070E0842B952BA62BB72B19996A
:100EF000C0C040E050E860E070E0842B952BA62B4A
:100F0000B72B1899BAC040E050E061E070E0842B44
:100F1000952BA62BB72B6699B4C040E050E062E059
:100F200070E0842B952BA62BB72BF70141915191A3
:100F3000619171917F01481759076A077B0771F129
:100F4000349780839183A283B383809100018823A7
:100F500011F180914A0280FF04C08BE891E00E9469
:100F6000EF0580914A0280FF0EC0809100011F9220
:100F70008F9386E891E09F938F930E9488060F904D
:100F80000F900F900F9080914A0280FF04C084E878
:100F900091E00E94EF0585E0809300010E94910698
:100FA0001F5F163009F0F9CE80910001882371F09F
:100FB000815080930001EEE4F1E0882309F465C0DC
:100FC0008FE99FE00197F1F700C0000081E0DF9119
:100FD000CF911F91FF90EF900895143079F0153064
:100FE00009F0E6CE879A8F98E5CE819A8998E2CE6D
:100FF000849A8C98DFCE859A8D98DCCE869A8E98CE
:10100000D9CE40E050E0BA01ECCE40E050E0BA0169
:10101000F2CE40E050E0BA01F8CE40E050E0BA0134
:10102000FECE40E050E0BA0104CF40E050E0BA010B
:101030000ACF40E050E0BA0110CF40E050E0BA01E2
:1010400016CF40E050E0BA011CCF40E050E0BA01BA
:1010500022CF40E050E0BA0128CF40E050E0BA0192
:101060002ECF40E050E0BA0134CF40E050E0BA016A
:101070003ACF40E050E0BA0140CF40E050E0BA0142
:1010800046CF40E050E0BA014CCF89919991A991A7
:10109000B99181939193A193B19391E0CE34D90703
:1010A000A1F794CF94E0899FF0011124E25BFE4FF9
:1010B0006081718182819381089508958091720188
:1010C00008959FB7F894109269019FBF90915F02B5
:1010D000943009F049C02091E9002F709091EC0004
:1010E00090FD30C090E0922B24E02093E900209105
:1010F000EB0020FF36C02091EE0027FF32C0209188
:101100006601222321F02091E80025FF2AC01092D9
:10111000660126E03091E80035FF16C08093F100AB
:101120008091E80085FD29C08091E80080FFFCCF18
:101130008091E8008E778093E8009F709093E9009B
:1011400080E0089590E8CFCF30915F02343049F4C9
:101150003091EB0035FD05C0215041F481E08093D2
:1011600066019F709093E9008FEF0895EFE9FFE02B
:101170003197F1F700C00000CDCF8FB7F89421E090
:10118000209369018FBFD9CFCF93DF9300D01F92F7
:10119000CDB7DEB79C0180915F02843019F593E0F2
:1011A00099833B832A839093E9008FEF9091E80025
:1011B000815095FD06C095ED9A95F1F700008111DB
:1011C000F5CF8091E80085FF0DC050E040E063E07E
:1011D00070E0CE0101960E94780B8091E8008E7736
:1011E0008093E8000F900F900F90DF91CF910895BA
:1011F000CF93DF9300D01F92CDB7DEB720915F026F
:10120000243021F522E029839B838A8383E0809325
:10121000E9008FEF9091E800815095FD06C095EDB3
:101220009A95F1F700008111F5CF8091E80085FFD4
:101230000DC050E040E063E070E0CE0101960E94F6
:10124000780B8091E8008E778093E8000F900F90E4
:101250000F90DF91CF9108959C0180915F028430BF
:10126000F9F482E08093E9009FEF8091E8009150CB
:1012700085FD06C085ED8A95F1F700009111F5CF47
:101280008091E80085FF0CC050E040E065E070E030
:10129000C9010E94780B8091E8008E778093E80066
:1012A0000895CF93DF93EC0180915F02843039F58C
:1012B00081E08093E9008FEF9091E800815095FDE7
:1012C00006C095ED9A95F1F700008111F5CF809158
:1012D000E80085FF14C050E040E068E070E0CE0117
:1012E0000E94780B8091E8008E778093E80088E078
:1012F000FE01AAE6B1E001900D928A95E1F7DF9137
:10130000CF91089583EC91E00E94EF0580915E02F9
:10131000811109C00E94080D0E94650D8091E200B4
:1013200084608093E20008958FEB91E00E94EF05C6
:1013300010925E0208950895209167012F5F822F19
:1013400062E30E94DE29992319F020936701089532
:1013500010926701809169018823E9F080915F0212
:101360008430B9F49091E9009F708091EC0080FD89
:1013700013C080E0892B94E09093E9009091EB00FA
:1013800090FF04C09091EE0097FD0AC08F7080938B
:10139000E90010926901089580E8ECCF1092F10005
:1013A0009091E80095FDFACF9091E80090FFEECF84
:1013B0009091E8009E779093E800E8CF42E061ECDE
:1013C00081E00E94860C42E061EC82E00E94860C83
:1013D00042E061EC83E00E94860C42E261EC84E032
:1013E0000C94860C80916102833009F452C030F471
:1013F000813059F1823009F48EC008958A3009F4A1
:101400007AC08B3009F460C0893009F041C0809106
:1014100060028132E9F58091640290916502892B26
:10142000B9F58091E800877F8093E8008091E8001B
:1014300082FF2AC08091F100809372018091E800C0
:101440008B778093E8000C94BA0C80916002813A0B
:10145000F9F48091E800877F8093E800809164022E
:1014600090916502892B61F468E08AE691E070E072
:101470000E94C70B8091E8008B778093E800089565
:1014800060E090E080E0F3CF80915F028111CECFE9
:10149000089580916002813AD9F780916402909119
:1014A0006502892BA9F78091E800877F8093E80087
:1014B0008091E80080FFFCCF80910B018093F100C8
:1014C0008091E8008E77BDCF80916002813201F774
:1014D0008091640290916502892BD1F68091E80099
:1014E000877F8093E8000E94BA0C8091620280930B
:1014F0000B010C94B01680916002813249F6809104
:10150000E800877F8093E8000E94BA0C8091630214
:1015100080937301089580916002813A09F0B8CFF9
:101520008091E800877F8093E8008091E80080FF49
:10153000FCCF80917301C2CF08950895809172010C
:10154000809368011092720180E00E945D080E9401
:10155000A4110C94B0160C949E0A0E94581D809100
:101560005D02882329F00E94811D81110C94620B79
:10157000089584B7877F84BF0FB6F894A8958091AB
:101580006000886180936000109260000FBE80E868
:1015900090E00FB6F89480936100909361000FBEC5
:1015A00081E698E00E94F31C87EB91E00E94EF0532
:1015B0000E949C0A0E94A8100E94080D0E94650DBE
:1015C0008091E20084608093E200789480915F02D1
:1015D0008430E1F786EA91E00E94EF050E94AA10AC
:1015E00081E091E00E94E60F85E991E00E94EF051D
:1015F0000E949D0A80915F02853019F00E94B01010
:10160000F9CF0E94AD0AF6CF0E94981D8091680123
:101610008093720108950C94040B292F33272330F3
:10162000310579F158F421303105F1F022303105DE
:1016300019F190E080E030E020E01AC0213231055D
:1016400099F122323105A9F7643098F770E0FB0177
:10165000EE0FFF1FE85EFE4F208131816C5E7E4FF2
:10166000FB01808190E004C082E190E02FE532E050
:10167000FA0131832083089584E790E02BEE31E076
:10168000F7CF99278130910561F028F0029789F60C
:10169000E7ECF1E002C0E7EEF1E0849190E09F0119
:1016A000E7CFE3EDF1E0F9CF643008F0C2CFE62FE9
:1016B000F0E0EE0FFF1FE05EFE4F2081318189E0F8
:1016C00090E0D6CF80E189BD82E189BD09B400FEFA
:1016D000FDCF8091D8008F7D8093D8008091E0006D
:1016E00082608093E0008091E00081FDFCCF08954E
:1016F000AF92BF92CF92DF92FF920F931F93CF933F
:10170000DF936C01EB018A010E94D90CF82E811144
:1017100023C00115110539F0F80180819181C81BA2
:10172000D90BC80ED91EB12CA12C2097A9F08091FD
:10173000E80085FD22C08091E8008E778093E80064
:1017400001151105A1F0F80180819181A80EB91E43
:10175000B182A08285E0F82E8F2DDF91CF911F916D
:101760000F91FF90DF90CF90BF90AF9008950E94AF
:10177000D90C8823D1F2F82EEFCFF60181916F01B9
:101780008093F1002197FFEFAF1ABF0ACECFFC0183
:10179000809166029091670286179707A0F0611505
:1017A000710529F49091E8009E779093E80090E00D
:1017B0006115710551F4911108C08091E80082FF14
:1017C00035C080E00895BC01F2CF80915F0288238C
:1017D000C9F18530C9F18091E80083FD31C0809165
:1017E000E80082FDEACF8091E80080FFE1CF209100
:1017F000F3008091F200322F282F6115710519F046
:101800002830310558F091E02830310509F090E09A
:101810002091E8002E772093E800CACF8191809331
:10182000F100615071092F5F3F4FE7CF80915F0258
:10183000882341F0853041F08091E80083FFBDCFDF
:1018400081E0089582E0089583E00895FC0180918D
:1018500066029091670286179707A0F061157105DF
:1018600029F48091E8008E778093E80090E061157C
:10187000710551F4911108C08091E80082FF36C0D3
:1018800080E00895BC01F2CF80915F028823D1F1FE
:101890008530D1F18091E80083FD32C08091E8006D
:1018A00082FDEACF8091E80080FFE1CF2091F30034
:1018B0008091F200322F282F6115710519F0283020
:1018C000310558F091E02830310509F090E0809121
:1018D000E8008E778093E800CACF84918093F1006E
:1018E0003196615071092F5F3F4FE6CF80915F02C3
:1018F000882341F0853041F08091E80083FFBCCF20
:1019000081E0089582E0089583E00895982F97304C
:1019100028F08F708093E90081E008959093E900AA
:10192000242F762F50E0981731F07091EC00209121
:10193000ED005091F00021FD02C09F5FE8CF309193
:10194000EB003E7F3093EB003091ED003D7F309314
:10195000ED003091EB0031603093EB007093EC00C0
:101960002093ED005093F0002091EE0027FDE5CF8D
:1019700080E008958091600287FF13C08091E800A5
:1019800082FF06C08091E8008B778093E80004C056
:1019900080915F028111F2CF089580915F028823C8
:1019A000D9F38091E80080FFF8CF8091E8008E772E
:1019B000ECCF2091E4003091E50085E69091EC00B9
:1019C00090FF06C09091E80090FF06C080E0089567
:1019D0009091E80092FDFACF90915F02992391F0E7
:1019E000953091F09091EB0095FD10C04091E4008E
:1019F0005091E5002417350709F381509A01F1F65B
:101A000084E0089582E0089583E0089581E00895D8
:101A10000E94760D0E947E0DE0EEF0E080818160F4
:101A20008083E8EDF0E080818F77808319BCA7ED9B
:101A3000B0E08C918E7F8C9380818F7E808310921A
:101A40005E0208950F931F93CF93DF930E94760D4C
:101A50000E947E0DC8EDD0E088818F7788838881D1
:101A60008068888388818F7D888319BC10925F028B
:101A700010925B0210925D0210925C0200EE10E088
:101A8000F80180818B7F808388818160888342E038
:101A900060E080E00E94860CE1EEF0E080818E7FC5
:101AA0008083E2EEF0E080818160808380818860C5
:101AB0008083F80180818E7F808388818061888324
:101AC000DF91CF911F910F910895E8EDF0E08081B3
:101AD0008F7E8083E7EDF0E080818160808384E009
:101AE00082BF81E080935E020C94220DE8EDF0E06D
:101AF00080818E7F80831092E20008951092DA0038
:101B00001092E10008951F920F920FB60F921124C8
:101B10002F933F934F935F936F937F938F939F93F5
:101B2000AF93BF93EF93FF938091E10082FF0BC0CF
:101B30008091E20082FF07C08091E1008B7F80935B
:101B4000E1000E949C098091DA0080FF19C0809119
:101B5000D80080FF15C08091DA008E7F8093DA0074
:101B60008091D90080FF94C080E189BD82E189BD68
:101B700009B400FEFDCF81E080935F020E948209DC
:101B80008091E10080FF19C08091E20080FF15C0C4
:101B90008091E2008E7F8093E2008091E20080617C
:101BA0008093E2008091D80080628093D80019BCB5
:101BB00085E080935F020E94AB0A8091E10084FF80
:101BC00029C08091E20084FF25C080E189BD82E1C7
:101BD00089BD09B400FEFDCF8091D8008F7D809330
:101BE000D8008091E1008F7E8093E1008091E20037
:101BF0008F7E8093E2008091E20081608093E2001A
:101C000080915B02882309F449C084E080935F02DD
:101C10000E940B0B8091E10083FF29C08091E200BC
:101C200083FF25C08091E100877F8093E10082E0FF
:101C300080935F0210925B028091E1008E7F80931F
:101C4000E1008091E2008E7F8093E2008091E200CB
:101C500080618093E20042E060E080E00E94860CB8
:101C60008091F00088608093F0000E949B09FF91B2
:101C7000EF91BF91AF919F918F917F916F915F9104
:101C80004F913F912F910F900FBE0F901F9018957D
:101C900019BC10925F020E94940972CF8091E300F8
:101CA00087FD02C081E0B2CF83E0B0CF1F920F92D8
:101CB0000FB60F9211242F933F934F935F936F931F
:101CC0007F938F939F93AF93BF93CF93EF93FF93A4
:101CD000C091E900CF708091EC001092E9008091F2
:101CE000F000877F8093F00078940E94920E10920B
:101CF000E9008091F00088608093F000C093E900D3
:101D0000FF91EF91CF91BF91AF919F918F917F9173
:101D10006F915F914F913F912F910F900FBE0F9058
:101D20001F9018951F93CF93DF93CDB7DEB7AA9777
:101D30000FB6F894DEBF0FBECDBFE0E6F2E08091B3
:101D4000F100819322E0E836F207C9F70E94F20918
:101D50008091E80083FF42C080916002909161020F
:101D60009A3008F03BC0E92FF0E0E754F14F0C94B3
:101D7000FE29C30EE70EEE0EE70EEE0E420F640FC5
:101D8000EE0EB90FC60F803879F0823839F58091A0
:101D900064028F708093E9008091EB0085FB8827B7
:101DA00080F91092E90006C080915C0290915D027A
:101DB000911182609091E800977F9093E800809362
:101DC000F1001092F1008091E8008E772DC0282F4D
:101DD0002D7F21F48823D1F0823059F18091E800E1
:101DE00083FF0AC08091E800877F8093E80080919C
:101DF000EB0080628093EB00AA960FB6F894DEBFEA
:101E00000FBECDBFDF91CF911F91089580916202E7
:101E1000813021F7933009F080E080935D021092C9
:101E2000E9008091E800877F8093E8000E94BA0C67
:101E3000D5CF809162028111F2CF809164028F70C0
:101E400069F28093E9002091EB0020FFE8CF933006
:101E500031F48091EB0080628093EB00E0CF9091B1
:101E6000EB0090619093EB0021E030E001C0220F85
:101E70008A95EAF72093EA001092EA008091EB003D
:101E80008860EACF8111AACF109162021F778091FA
:101E9000E3008078812B8093E3008091E800877FC6
:101EA0008093E8000E94BA0C8091E80080FFFCCF8C
:101EB0008091E30080688093E30083E0111101C00A
:101EC00082E080935F028ACF8058823008F086CF0C
:101ED00080916202909163028C3D23E09207A1F50C
:101EE00083E08A838AE289834FB7F894DE011396F0
:101EF00020E03EE051E2E32FF0E050935700E49100
:101F000020FF03C0E295EF703F5FEF708E2F90E0EF
:101F1000EA30C0F0C7968D939D932F5F243159F717
:101F20004FBF8091E800877F8093E8006AE270E00D
:101F3000CE0101960E94C70B8091E8008B778093B9
:101F4000E8004CCFC096E7CFAE014F5F5F4F609186
:101F500064020E940D0BBC01892B09F43FCF9091C4
:101F6000E800977F9093E80089819A810E94260C6F
:101F7000E3CF803809F032CF8091E800877F8093EB
:101F8000E80080915B028093F1001DCF811126CF84
:101F900090916202923008F021CF8091E800877F13
:101FA0008093E80090935B020E94BA0C80915B02E0
:101FB000882331F084E080935F020E94DE090ECF17
:101FC0008091E30087FDF6CF81E0F5CF9093790112
:101FD000809378010895E0917801F091790130972C
:101FE00021F00190F081E02D099480E00895EF92B6
:101FF000FF920F931F93CF93DF938C01E0917801B1
:10200000F09179013097C1F10280F381E02D0995BB
:1020100080914A0282FF30C080FF04C08CE793E0C9
:102020000E94EF05D0E0C0E086E7E82E83E0F82EBE
:1020300080914A0280FF0EC0F801EC0FFD1F8081E5
:102040001F928F93FF92EF920E9488060F900F903D
:102050000F900F902196C830D10551F780914A0218
:1020600080FF0AC084E793E0DF91CF911F910F9129
:10207000FF90EF900C94EF05DF91CF911F910F919E
:10208000FF90EF900895E0917801F09179013097F9
:1020900021F00480F581E02D09940895CF93DF931A
:1020A000EC0180917601909177018C179D0701F1E9
:1020B000D0937701C0937601E0917801F091790196
:1020C0003097B1F00680F781E02DCE01099580911F
:1020D0004A028570853061F4DF93CF9386E693E002
:1020E0009F938F930E9488060F900F900F900F90F0
:1020F000DF91CF910895CF93DF93EC01809174012C
:10210000909175018C179D0701F1D0937501C093D3
:102110007401E0917801F09179013097B1F0008479
:10212000F185E02DCE01099580914A0285708530B8
:1021300061F4DF93CF9386E593E09F938F930E94A2
:1021400088060F900F900F900F90DF91CF91089518
:102150000C94A5110E94C51D0E9498060C94C31FE3
:102160004F925F926F927F928F929F92AF92BF92A7
:10217000DF92EF92FF920F931F93CF93DF93CDB730
:10218000DEB729970FB6F894DEBF0FBECDBF0E9411
:10219000C4060BE711E0D12C8D2D0E9452084B0193
:1021A0005C01D8014D905D906D907C90481459046D
:1021B0006A047B0409F462C080914A0281FD0E9496
:1021C000A611F12CE12CD301C20188259925AA255D
:1021D000BB258E839F83A887B9874E815F816885E1
:1021E00079850E2C04C076956795579547950A9486
:1021F000D2F740FF3BC0E982DA82412C512C3201F8
:1022000043940E2C04C0440C551C661C771C0A9485
:10221000D2F7B301A201482159216A217B2181E033
:10222000452B462B472B09F480E08B830E94CE1D63
:102230008160782F9D838C8349815A816B818D8148
:102240000E94DE1149815A816B817C818D810E94BF
:10225000441DF80180819181A281B3818425952557
:10226000A625B72580839183A283B383FFEFEF1A5E
:10227000FF0A82E1E816F10409F0AFCFD3940C5FB6
:102280001F4F96E0D91288CF8FEF89838A831B82F4
:102290000E94CE1D8160782F9D838C8349815A8155
:1022A0006B818D810E94DE110E94431D0E942723B5
:1022B0000E94EB0F90917A01891771F10E94EB0F48
:1022C00080937A0190914A029570953061F41F9243
:1022D0008F9387E893E09F938F930E9488060F90D7
:1022E0000F900F900F9080917A0129960FB6F89475
:1022F000DEBF0FBECDBFDF91CF911F910F91FF9039
:10230000EF90DF90BF90AF909F908F907F906F90F5
:102310005F904F900C94551D29960FB6F894DEBF30
:102320000FBECDBFDF91CF911F910F91FF90EF9026
:10233000DF90BF90AF909F908F907F906F905F9055
:102340004F9008950C945D0808950895EF92FF92C0
:102350000F931F93CF93DF9381EA93E00E94EF05E1
:10236000D0E0C0E088E2E82E81E0F82E02E913E038
:102370008C2F0E9452080E941D1DFF92EF929F9386
:102380008F937F936F93DF93CF931F930F930E944D
:10239000880621968DB79EB70A960FB6F8949EBF11
:1023A0000FBE8DBFC630D10519F7DF91CF911F91B8
:1023B0000F91FF90EF90089508950895CF93DF93C4
:1023C000CDB7DEB72B970FB6F894DEBF0FBECDBFEB
:1023D000942F4F83252F588769877A878B874A8563
:1023E0005B8581E0452B31F02F3F19F481E09F3F61
:1023F00009F080E080FD07C04F81588569857A85A6
:102400008B850E94441D1E821D8285E0FE01379649
:10241000DE01119601900D928A95E1F749815A816A
:102420006B817C818D819E812B960FB6F894DEBFE7
:102430000FBECDBFDF91CF910C947F19CF93C82FE2
:10244000882309F4D4C08238C1F40E94EB0F81FDC7
:10245000CEC089E30E94521C0E94CD1C2FEF81EE5A
:1024600094E0215080409040E1F700C0000089E3F3
:102470000E946F1CCF910C94CD1C8338A1F40E9454
:10248000EB0F80FDB4C083E50E94521C0E94CD1C5E
:102490002FEF81EE94E0215080409040E1F700C0A2
:1024A000000083E5E5CF8438A1F40E94EB0F82FDA4
:1024B0009EC087E40E94521C0E94CD1C2FEF81EE2B
:1024C00094E0215080409040E1F700C0000087E494
:1024D000CFCF8CEF8C0F813A48F48C2F0E9462276B
:1024E000811185C08C2F0E94521CC4CF80E28C0FBA
:1024F000883048F4C77081E001C0880FCA95EAF7B8
:102500000E94921CB7CF8BE58C0F833068F481E872
:1025100090E0C53A31F083E890E0C63A11F482E8E1
:1025200090E0CF910C944E1088E58C0F853108F027
:102530005EC082EE90E0C83A09F456C089EE90E0A1
:10254000C93A09F451C08AEE90E0CA3A09F44CC085
:1025500085EB90E0CB3A09F447C086EB90E0CC3AAB
:1025600009F442C083EB90E0CD3AF1F184EB90E0C6
:10257000CE3AD1F187EB90E0CF3AB1F18CEC90E01C
:10258000C13B91F18DEC90E0C03B71F183E891E0AB
:10259000C23B51F18AE891E0C33B31F182E991E01D
:1025A000C43B11F184E991E0C53BF1F081E292E096
:1025B000C63BD1F083E292E0C73BB1F084E292E007
:1025C000C83B91F085E292E0C93B71F086E292E06F
:1025D000CA3B51F087E292E0CB3B31F090E080E0E3
:1025E000CC3B11F48AE292E0CF910C947B10CF9116
:1025F0000895882309F466C08238B9F40E94EB0F6D
:1026000081FF60C089E30E94521C0E94CD1C2FEF05
:1026100081EE94E0215080409040E1F700C000003E
:1026200089E30E946F1C0C94CD1C8338A1F40E9496
:10263000EB0F80FF47C083E50E94521C0E94CD1C17
:102640002FEF81EE94E0215080409040E1F700C0F0
:10265000000083E5E6CF8438A1F40E94EB0F82FFEF
:1026600031C087E40E94521C0E94CD1C2FEF81EEE6
:1026700094E0215080409040E1F700C0000087E4E2
:10268000D0CF9CEF980F913A60F290E2980F98307B
:1026900050F4877091E001C0990F8A95EAF7892F6D
:1026A0000E94981CC0CF9BE5980F933020F490E0D7
:1026B00080E00C944E10885A853120F490E080E040
:1026C0000C947B100895882321F00E94921C0C9496
:1026D000CD1C0895882321F00E94981C0C94CD1CD9
:1026E0000895AF92BF92CF92DF92EF92FF920F9335
:1026F0001F93CF93DF9300D000D01F92CDB7DEB7EA
:102700005C0185E0F501DE01119601900D928A953C
:10271000E1F7F501408151812381348181E0211568
:10272000310531F05F3F19F481E04F3F09F080E05F
:1027300080FDC5C0F501F280E580E2946FE0E622FD
:10274000722F3D832C836F2D8D810E94D61B8C01AF
:102750000E94D51B0E94C71AE12FE295EF70F0E0AE
:10276000EC54FC4E0C94FE29C413C4130114011440
:102770009214C7145F145F14E0145F14CC15CC15C9
:1027800072165F145F148916F12FFF70EF2E107F01
:1027900019F0E29490EFE922FF20C9F0EE2029F031
:1027A0008E2D0E94A61C0E94CD1C802F0F900F9092
:1027B0000F900F900F90DF91CF911F910F91FF908D
:1027C000EF90DF90CF90BF90AF900C941E12802FAF
:1027D0000E94F912EE2009F472C08E2D0E94AC1CEA
:1027E0000F900F900F900F900F90DF91CF911F914E
:1027F0000F91FF90EF90DF90CF90BF90AF900C942F
:10280000CD1C812F8F70D82E107F103219F0D294EA
:1028100080EFD822002379F0013009F460C0FF2056
:1028200009F46CC0EE2059F0F501858180FFBDCF21
:102830008F70858304C0FF2049F1E11012C08D2DF7
:102840000F900F900F900F900F90DF91CF911F91ED
:102850000F91FF90EF90DF90CF90BF90AF900C94CE
:102860006313E1E08D2DEE12EBCF0F900F900F90E0
:102870000F900F90DF91CF911F910F91FF90EF90EC
:10288000DF90CF90BF90AF900C94B71CE11014C0B4
:102890000E94BA1C8D2D0F900F900F900F900F90EB
:1028A000DF91CF911F910F91FF90EF90DF90CF902C
:1028B000BF90AF900C946A13F1E0EF12E9CF0F9044
:1028C0000F900F900F900F90DF91CF911F910F916C
:1028D000FF90EF90DF90CF90BF90AF900895FF20D2
:1028E00049F085E08E1558F30E948F1C8D2109F464
:1028F000A6CFD0CFE4E0EE1510F3CCCFEE2051F20E
:10290000802F0F900F900F900F900F90DF91CF912D
:102910001F910F91FF90EF90DF90CF90BF90AF90FD
:102920000C94F912812F869586958370C9F08130B9
:1029300031F6C8019370F11002C090E080E00F9072
:102940000F900F900F900F90DF91CF911F910F91EB
:10295000FF90EF90DF90CF90BF90AF900C947B10E2
:10296000C8019370F11002C090E080E00F900F90CA
:102970000F900F900F90DF91CF911F910F91FF90CB
:10298000EF90DF90CF90BF90AF900C944E10802FBF
:10299000FF2099F00E94AE210F900F900F900F90A2
:1029A0000F90DF91CF911F910F91FF90EF90DF90EB
:1029B000CF90BF90AF900C949A220E941622ECCF39
:1029C000812F837009F071C0F11079CF202F2295EB
:1029D00026952770220F220F602F6F70C62ED12CE4
:1029E000F12CE12C022E04C0CC0CDD1CEE1CFF1CD3
:1029F0000A94D2F760E070E0CB0104FF0FC06FE0F3
:102A000070E080E090E004C0660F771F881F991F78
:102A10002A95D2F7609570958095909516951695A4
:102A200013701230C1F060F56C297D298E299F2921
:102A3000113051F10F900F900F900F900F90DF9188
:102A4000CF911F910F91FF90EF90DF90CF90BF90AB
:102A5000AF900C94EC1A6C297D298E299F290F9038
:102A60000F900F900F900F90DF91CF911F910F91CA
:102A7000FF90EF90DF90CF90BF90AF900C94061B2B
:102A80000E94EC1AC701B6010F900F900F900F90A3
:102A90000F90DF91CF911F910F91FF90EF90DF90FA
:102AA000CF90BF90AF900C94D21A8695FF2011F072
:102AB000812F8170882309F402CF202F229526953B
:102AC0002770220F220F602F6F70C62ED12CF12C91
:102AD000E12C022E04C0CC0CDD1CEE1CFF1C0A9461
:102AE000D2F760E070E0CB0104FF0FC06FE070E050
:102AF00080E090E004C0660F771F881F991F2A9519
:102B0000D2F76095709580959095169516951370EF
:102B10001230C1F060F56C297D298E299F29113072
:102B200051F10F900F900F900F900F90DF91CF9178
:102B30001F910F91FF90EF90DF90CF90BF90AF90DB
:102B40000C94B11B6C297D298E299F290F900F9021
:102B50000F900F900F90DF91CF911F910F91FF90E9
:102B6000EF90DF90CF90BF90AF900C94C31B0E946A
:102B7000B11BC701B6010F900F900F900F900F90EF
:102B8000DF91CF911F910F91FF90EF90DF90CF9049
:102B9000BF90AF900C949F1B003F09F445C060F4B8
:102BA00080E4800F803228F1FF2009F496C0E11004
:102BB000FCCD812F8F715AC0023F09F468C008F420
:102BC00051C0033F89F7FF2009F476C0812F8F7130
:102BD0000F900F900F900F900F90DF91CF911F915A
:102BE0000F91FF90EF90DF90CF90BF90AF900C943B
:102BF000251BC02E812F8F71102F1071FF2051F0D7
:102C00000E943A1B8C2D8295807F111119CE802F46
:102C10008F7016CE0E945B1B8C2D8295807F1111C8
:102C20003ACE802F8F7037CEFF20B9F0F4E0FE153A
:102C300008F445CE812F8F710F900F900F900F9059
:102C40000F90DF91CF911F910F91FF90EF90DF9048
:102C5000CF90BF90AF900C947E1B85E08E1508F44A
:102C60002ECEE8CF812F8F71FF20A9F00F900F900B
:102C70000F900F900F90DF91CF911F910F91FF90C8
:102C8000EF90DF90CF90BF90AF900C943A1B812FC4
:102C90008F71FF2059F30F900F900F900F900F90AE
:102CA000DF91CF911F910F91FF90EF90DF90CF9028
:102CB000BF90AF900C945B1B0F900F900F900F90F4
:102CC0000F90DF91CF911F910F91FF90EF90DF90C8
:102CD000CF90BF90AF900C94201BE11011CE812FAC
:102CE0008F71D9CF412F4F70602FC5010E94E61E12
:102CF0000F900F900F900F900F90DF91CF911F9139
:102D00000F91FF90EF90DF90CF90BF90AF900C9419
:102D1000281A412F4F70602FC5010F900F900F9010
:102D20000F900F90DF91CF911F910F91FF90EF9037
:102D3000DF90CF90BF90AF900C94E91E0E94B41C1E
:102D40000E94811C0E94CD1C0E94C9230E949A22CD
:102D500090E080E00E944E1090E080E00C947B10A8
:102D60000E94A31C0C949E16CF93DF9300D000D03A
:102D70001F92CDB7DEB70E94D61B292F22952F7048
:102D80002C3038F42A3000F52250223088F080E0D0
:102D900007C02C3011F02F30D1F793FB882780F932
:102DA0000F900F900F900F900F90DF91CF9108959B
:102DB000853A30F4843010F4823030F481E0F0CF82
:102DC00090E2980F9830D0F3883E30F4803EB0F710
:102DD0008450813AE0F6F2CF803FC9F6EFCFCF932F
:102DE000DF9300D000D01F92CDB7DEB70F900F90C9
:102DF0000F900F900F90DF91CF910895CF93DF93B5
:102E000000D000D000D0CDB7DEB726960FB6F8942C
:102E1000DEBF0FBECDBFDF91CF9108951F93CF933B
:102E2000DF93C091930116E0809194018C1304C04C
:102E3000DF91CF911F910895D0E01C9FF0011D9F5D
:102E4000F00D1124EB56FE4F408151816281738158
:102E5000848195810E94FE162196C770E5CF40912E
:102E6000C5015091C6016091C7017091C801809160
:102E7000C9019091CA010C94FE161F93CF93DF9362
:102E80008091CA01807FD1F48091C7018823B1F07D
:102E900080919301D0919401B091C501C091C60178
:102EA0004091C8015091C901A1E0BF3F09F0A0E0E5
:102EB000BA016095709516E0D81304C0DF91CF91E8
:102EC0001F91089521E04115510521F02A2FCF3F90
:102ED00009F020E090E020FD38C0189FF001199F14
:102EE000F00D1124EB56FE4F21812C132EC02081B2
:102EF0002B132BC02281211128C023813481241758
:102F0000350700F1241B350B283C3105F0F42091E6
:102F1000CA012F7020612093CA0126E0289FF0018A
:102F2000299FF00D1124E656FE4F80818F7080613D
:102F3000808385EC91E00E947113DF91CF911F9106
:102F40000C940E17260F371FDFCF01968770B4CF72
:102F5000AF92BF92CF92DF92EF92FF920F931F93A7
:102F6000CF93DF93CDB7DEB761970FB6F894DEBF8E
:102F70000FBECDBF7C0185E0F701DE011D960190FB
:102F80000D928A95E1F7D7014C9111965C911197BA
:102F90001296DC90129713960D911C913091C501F9
:102FA0006091C6018091C8019091C90121E000970C
:102FB00031F06F3F19F421E03F3F09F020E0B22FDC
:102FC000B170BB2E20FD89C1A090C701AA2009F4D1
:102FD00025C108171907D8F1F801E81BF90BCF0133
:102FE000CC24C394883C910508F0C12C8091CA017F
:102FF000982F907FCC2009F4C4C0911189C0CD2CAA
:1030000065132AC0341328C0D11026C08F70806188
:103010008093CA010E942F1785EC91E00E947113E2
:103020008091CA01D70115968C938C2D61960FB6AD
:10303000F894DEBF0FBECDBFDF91CF911F910F91EE
:10304000FF90EF90DF90CF90BF90AF900895809564
:103050009095800F911FC4CF81E00115110531F0CB
:103060005F3F19F481E04F3F09F080E080FD24C00C
:1030700081E08D25B82FB170AB2E80FF3FC08091CD
:1030800093012091940136E0821318C0702F198BA0
:10309000088B6D2D89890E94D61B292F22952F70B0
:1030A000223000F1243028F59F7001F1F70195815D
:1030B000907FE1F4CB2CB9CF80E0DCCF90E0389F5B
:1030C000F001399FF00D1124EB56FE4F618156132C
:1030D00006C06081461303C062816D110FC0019666
:1030E0008770D2CF9F7011F0882321F3805E8830E3
:1030F00008F3C7010E947113BA2CDCCFDD2009F45C
:1031000094CF8091CA0181608093CA01C12C8DCF78
:10311000651306C0341304C0D701DD2009F4A4C030
:103120004D875E87DF86702F198B088B6D2D8989FF
:103130000E94B416882309F4DEC0DD2009F4DBC048
:103140008091CA01803270F02091C5013091C60192
:1031500038872F8319861B870A878C87CE010796AD
:103160000E94711386E0F701A5ECB1E001900D9289
:103170008A95E1F70E943D170E942F17CC24C39433
:1031800054CF911115C0702F198B088B6D2D898923
:103190000E94EF1685EC91E00E94711386E0E5EC49
:1031A000F1E0DF011D928A95E9F70E942F173DCFCC
:1031B000651312C0341310C0D1100EC0F7018583FF
:1031C000C7010E947113E5ECF1E086E0DF011D927A
:1031D0008A95E9F7CA2C29CF4D875E87DF86702F45
:1031E000198B088B6D2D89890E94B416882309F4E8
:1031F00082C0DD2009F47FC08091CA01803208F4CA
:10320000B1CF2091C5013091C6013A8329831B8239
:103210001D830C838E83CE010196A2CF0817190758
:1032200088F1F801E81BF90BCF01C12C883C91050E
:1032300008F04BC0CD2CDD2009F45DC0651330C013
:1032400034132EC08091CA0180FD21C0982F907F39
:10325000F1F0D70115968C931597903F39F0982F80
:10326000907F905F8F70892B15968C93C7010E9479
:10327000711386E0F701A5ECB1E001900D928A95FB
:10328000E1F793CF80959095800F911FCECF86E088
:10329000F701A5ECB1E001900D928A95E1F7C5CE5A
:1032A0004D875E87DF86702F198B088B6D2D89897E
:1032B0000E94B416811156CF8091CA01816080931B
:1032C000CA01C7010E947113B0CE702F198B088BF1
:1032D0006D2D89890E94EF1661CFDD2061F04D8749
:1032E0005E87DF86702F198B088B6D2D89890E9470
:1032F000B416811137CFC7010E9471133FCF1F93BE
:10330000CF93DF93CDB7DEB72C970FB6F894DEBF1F
:103310000FBECDBF4F83588769877A878B879C877D
:10332000CE0107960E94A817882309F442C09F8106
:1033300088852A853B85232B39F08F3F19F481E05E
:103340009F3F19F080E001C081E080FD08C04F81FF
:10335000588569857A858B859C850E94FE1616E0C6
:103360008091930190919401891709F467C0819F1E
:10337000C00111248B569E4F0E94A817882309F480
:103380005DC0E09193011E9FF0011124EB56FE4FAA
:103390004081518162817381848195810E94FE16F2
:1033A0008091930190E00196877099278093930113
:1033B000D7CF86E0FE013796DE01119601900D927F
:1033C0008A95E1F79F8188852A853B85232B39F0F3
:1033D0008F3F19F481E09F3F19F080E001C081E048
:1033E00080FDBDCF2091940130E0C9010196877026
:1033F0009927409193014817190699F096E0929FFA
:10340000D001939FB00D1124AB56BE4FFE013196F3
:1034100001900D929A95E1F7809394010E940E1706
:103420009ECF0E94B016109294011092930186E0F4
:10343000E5ECF1E0DF011D928A95E9F72C960FB6D5
:10344000F894DEBF0FBECDBFDF91CF911F910895DD
:10345000DF92EF92FF920F931F93CF93DF938C0134
:10346000892BB9F0E12CF12CDD24D394E8012196CD
:10347000F8018491853709F46AC098F4843708F01C
:1034800059C0843008F06FC0813011F1823009F4E6
:103490003CC0DF91CF911F910F91FF90EF90DF9093
:1034A0000895883709F45CC058F4863709F454C08D
:1034B000873779F78E2D0E94A01C0E94CD1C1FC05B
:1034C0009CE7980F903728F78F770E94F91217C062
:1034D0000E5F1F4FFE01849190E2980F983060F4C8
:1034E0008770FD2D01C0FF0F8A95EAF78F2F0E948C
:1034F000A61C0E94CD1C02C00E941E12E8018F2D46
:10350000815008F033C08E01B1CF0E5F1F4FFE0116
:10351000849190E2980F983050F48770FD2D01C08F
:10352000FF0F8A95EAF78F2F0E94AC1CE2CF0E9412
:10353000F912E4CF0E5F1F4FFE01C491C150F0F2AB
:103540008FE99FE00197F1F700C00000F7CF0E5F11
:103550001F4FFE01F490D2CF0E948F1CE82ECFCFD8
:103560000E94A31CAACF0E941E12C9CFEFE9FFE060
:103570003197F1F700C00000C3CF6093370270931A
:1035800038028093390290933A020C94541D0895A6
:1035900060933B0270933C0280933D0290933E0205
:1035A0000C94531D0F931F9300913B0210913C020A
:1035B00020913D0230913E02602B712B822B932B88
:1035C00060933B0270933C0280933D0290933E02D5
:1035D0001F910F910C94531D0F931F9300913B0269
:1035E00010913C0220913D0230913E0260237123F4
:1035F0008223932360933B0270933C0280933D02AD
:1036000090933E021F910F910C94531D0F931F93A3
:1036100000913B0210913C0220913D0230913E020C
:10362000602771278227932760933B0270933C02A7
:1036300080933D0290933E021F910F910C94531D75
:1036400060E070E0CB010C94BD1A0F931F9341E032
:1036500050E060E070E08A019B0104C0000F111F80
:10366000221F331F8A95D2F7C901B8011F910F910C
:103670000C94BD1A0F931F9341E050E060E070E09E
:1036800004C0440F551F661F771F8A95D2F780919B
:10369000370290913802A0913902B0913A028A0122
:1036A0009B01082B192B2A2B3B2BC901B8011F9119
:1036B0000F910C94BD1A0F931F9341E050E060E00E
:1036C00070E004C0440F551F661F771F8A95D2F71C
:1036D000CB01BA0160957095809590950091370265
:1036E000109138022091390230913A0260237123FF
:1036F000822393231F910F910C94BD1A0F931F9354
:1037000041E050E060E070E004C0440F551F661FC8
:10371000771F8A95D2F78091370290913802A09155
:103720003902B0913A028A019B01082719272A27FA
:103730003B27C901B8011F910F910C94BD1A0F933B
:103740001F93009137021091380220913902309175
:103750003A02602B712B822B932B1F910F910C94AB
:10376000BD1A0F931F9300913702109138022091D8
:10377000390230913A0260237123822393231F91EF
:103780000F910C94BD1A0F931F9300913702109163
:1037900038022091390230913A026027712782273E
:1037A00093271F910F910C94BD1A08954F925F9229
:1037B0006F927F929F92AF92BF92CF92DF92EF92E1
:1037C000FF920F931F93CF93DF9300D000D01F92EF
:1037D000CDB7DEB77A01AF2CB12CC42ED12C662325
:1037E00009F454C04090370250903802609039027A
:1037F00070903A0280913B0290913C02A0913D0270
:10380000B0913E02482A592A6A2A7B2A0FE110E029
:10381000902ED301C201002E04C0B695A7959795AE
:1038200087950A94D2F780FD2AC00150110980F7CC
:10383000912C82E18A9DF0018B9DF00D1124E553BE
:10384000FE4FEC0DFD1D9082E982FA8269817A813A
:10385000892D0F900F900F900F900F90DF91CF91C7
:103860001F910F91FF90EF90DF90CF90BF90AF909E
:103870009F907F906F905F904F900C94051FB701C1
:10388000802F0E94051F019781F2D3CF82E18A9D8C
:10389000F0018B9DF00D1124E553FE4FEC0DFD1D45
:1038A0009080D2CF20910C0130910D01F901329618
:1038B0009FEF40E05191851751F09F3F19F451114E
:1038C00001C0942F4F5F4630A9F79F3F09F4089538
:1038D000290F311D97FD3A95F901828308952091B2
:1038E0000C0130910D01F9013296285F3F4F919103
:1038F000891303C0DF0111971C92E217F307B9F790
:10390000089581E090E0E0910C01F0910D01E80F45
:10391000F91F1082019688309105A9F708958091CA
:103920004902089590914902892B80934902089594
:10393000982F909580914902892380934902089598
:103940008093490208951092490208959091480287
:10395000892B809348020895982F90958091480272
:103960008923809348020895109248020895809315
:103970003F02089510923F02089520910C0130916A
:103980000D01F9013196285F3F4F80E0919191112F
:103990008F5FE217F307D1F70895E0910C01F091E2
:1039A0000D01809149028083E0910C01F0910D019D
:1039B000808190914802892B808390913F029923C6
:1039C00061F0E0910C01F0910D018081892B8083E1
:1039D0000E94BD1C811110923F0280910C019091B8
:1039E0000D010C94F70F90933501809334010895E5
:1039F000829590E09C01220F331F220F331F2C7CF5
:103A000095958795959587958373282B30E0C90107
:103A1000880F991F8A7A359527952575822B0895E9
:103A2000CF93DF93D92F0E94F81CC82F8D2F0E94AF
:103A3000F81C9C2FDF91CF910895CF92DF92EF92E7
:103A4000FF920F931F93CF93DF937C01CB010E94D2
:103A5000101DEC01C7010E94101D8C01BE0190E0F9
:103A600080E0CB017727662730E020E0602B712BC8
:103A7000822B932BDF91CF911F910F91FF90EF90AD
:103A8000DF90CF9008950895CF93DF9300D000D0BA
:103A90001F92CDB7DEB70F900F900F900F900F9041
:103AA000DF91CF910895089508950C94A21108957F
:103AB00080915F02843021F110924B0288E190E006
:103AC00020E40FB6F894A895809360000FBE209371
:103AD000600083B7817F846083BF83B7816083BFC9
:103AE0007894889583B78E7F83BF0FB6F894A89596
:103AF00080916000886180936000109260000FBE2A
:103B00000895CF930E94DC110E94C4060E94DD112B
:103B1000C0E08C2F0E945208672B682B692B31F470
:103B2000CF5FC630B1F780E0CF91089581E0FCCF40
:103B30000E94A4110C94B0161F920F920FB60F9210
:103B400011248F939F93AF93BF9380914B02811168
:103B500013C080914C0290914D02A0914E02B09101
:103B60004F024196A11DB11D80934C0290934D02CE
:103B7000A0934E02B0934F02BF91AF919F918F914E
:103B80000F900FBE0F901F90189582E084BD93E0B8
:103B900095BD9AEF97BD80936E0008952FB7F89466
:103BA00080914C0290914D02A0914E02B0914F0233
:103BB0002FBF08952FB7F89460914C0270914D0279
:103BC00080914E0290914F022FBF0895CF92DF92C5
:103BD000EF92FF920F931F932FB7F89440914C02EE
:103BE00050914D0260914E0270914F022FBF6A01B9
:103BF0007B01EE24FF248C0130E020E0C016D106CA
:103C0000E206F30650F0481B590BCA011F910F91B1
:103C1000FF90EF90DF90CF90089541505109F3CF7E
:103C20001F920F920FB60F9211248F939F93AF9311
:103C3000BF9380914C0290914D02A0914E02B091A1
:103C40004F020196A11DB11D80934C0290934D022D
:103C5000A0934E02B0934F02BF91AF919F918F916D
:103C60000F900FBE0F901F9018950E94080DF894AA
:103C70002FEF87EA91E6215080409040E1F700C0A5
:103C8000000087E090EBDC018093690290936A0268
:103C9000A0936B02B0936C0288E19CE00FB6F8949D
:103CA000A895809360000FBE90936000FFCF8D3B7E
:103CB00060F4883A80F5853A18F58430F8F481305C
:103CC00009F481C090E080E00895883E90F4803E41
:103CD000A8F48F3BB9F70E94B0162FEF80E792E06F
:103CE000215080409040E1F700C000000E94351E46
:103CF000E9CF803F38F390E09065089590E0089513
:103D000031E8853A21F033E8863A09F432E820E4D4
:103D1000832F922F0895883A59F1893A61F18A3AAE
:103D200061F18B3A61F18C3A61F18D3A61F18E3A31
:103D300061F18F3A61F1813B61F1803B61F1823B3E
:103D400061F1833B69F1843B69F1853B69F1863B15
:103D500069F1873B71F1883B71F1893B71F18A3BD5
:103D600071F18B3B71F130E08C3B19F43AE21FC0EA
:103D700032EE24E4CDCF39EEFCCF3AEEFACF35EB7C
:103D8000F8CF36EBF6CF33EBF4CF34EBF2CF37EBA3
:103D9000F0CF3CECEECF3DECECCF33E825E4B8CFF0
:103DA0003AE8FCCF32E9FACF34E9F8CF31E226E441
:103DB000AFCF33E2FCCF34E2FACF35E2F8CF36E2D0
:103DC000F6CF37E2F4CF81E090E0089590E080E014
:103DD00008950895E62FF0E092E1799FE00DF11D3E
:103DE00011249CE6899FE00DF11D1124E455FF4F3D
:103DF00084910895282F205C330BF901EE0FFF1FEB
:103E0000E455FF4F8591949108950E94EA1E803EEB
:103E1000D0F4803C88F5813309F452C040F48932F3
:103E200009F448C08A3209F451C00C94571E8933F2
:103E300029F1823819F18533C1F78091680285FF35
:103E40003DC089E2F2CF833E39F160F4803EE1F07B
:103E5000823E59F78091680282FF22C084FF1AC017
:103E600080E0E3CF863EF1F0873EF9F6809168026C
:103E700083FF1CC086EED9CF0C94FA1E9091680285
:103E8000937099F280EED1CF8091680280FFFACFD3
:103E900089E3CBCF83EEC9CF8091680282FFDECF6A
:103EA00082EEC3CF8091680283FFE4CF84FDD8CF38
:103EB00087EEBBCF8091680285FFC3CF85E3B5CF86
:103EC0008091680286FF06C08AE2AFCF80916802C7
:103ED00086FFFACF81E3A9CF8F929F92AF92BF92D4
:103EE000EF92FF920F931F93CF937C01C0E08C2F32
:103EF0000E9452084B015C0110E000E0D501C401B2
:103F0000002E04C0B695A795979587950A94D2F789
:103F100080FF1DC0602F7C2F80E00E94051F8E1542
:103F20009F0551F0292F207E392F307C11F0203A47
:103F300071F48E151F0459F481E0CF911F910F91F8
:103F4000FF90EF90BF90AF909F908F9008950F5F7C
:103F50001F4F0231110591F6CF5FC63041F680E068
:103F6000ECCFCF93DF93EC018CE290E00E946C1FCA
:103F7000882329F0CE01DF91CF910C946C1F80E053
:103F8000DF91CF910895CF930E940521811102C046
:103F90000E94EB208EEC93E00E94EF05C5E6C15035
:103FA00009F0E9C087EC93E00E94EF0589E290E018
:103FB0000E94B11F81110DC18AE290E00E94B11FE1
:103FC00081110E94EB2085E090E00E94B11F8111D9
:103FD0000E94351E0E94571D0E94102180934A02A4
:103FE00087E090E00E94B11F882379F08BE190E098
:103FF0000E94B11F882309F4C7C090914A02892FFB
:104000008D7F91FF826080934A0280914A020E94D4
:1040100014210E9422218093680280EE90E00E9489
:10402000B11F882341F090916802892F8E7F90FF05
:1040300081608093680289E390E00E94B11F882329
:1040400041F090916802892F8D7F91FF826080936B
:10405000680282EE90E00E94B11F882341F09091A7
:104060006802892F8B7F92FF84608093680286EEBE
:1040700090E00E94B11F882341F090916802892F3F
:10408000877F93FF88608093680283EE90E00E94B0
:10409000B11F882341F090916802892F8F7E94FF91
:1040A00080618093680285E390E00E94B11F8823BD
:1040B00041F090916802892F8F7D95FF80628093F7
:1040C000680281E390E00E94B11F882341F0909143
:1040D0006802892F8F7B96FF80648093680281E15C
:1040E00090E00E94B11F882341F090916802892FCF
:1040F00097FB87F9805880936802809168020E943C
:10410000262187E290E00E94B11FC82F8EE190E047
:104110000E94B11F8111C2608FE190E00E94B11F27
:104120008111C46080E290E00E94B11F8111C860DB
:1041300081E290E00E94B11F8111C06182E290E0B3
:104140000E94B11F8111C06283E290E00E94B11F02
:104150008111C06484E290E00E94B11F882399F12C
:10416000C0688C2F0E941D216C2F70E090E080E0D1
:10417000CF910C94C81A0E94C4068FE39CE9019762
:10418000F1F700C000000BCF8EE090E00E94B11F5D
:10419000882339F090914A02892F8B7F92FF8460A7
:1041A00032CF80E190E00E94B11F90914A028823B3
:1041B00029F0892F877F93FF886025CF892F8E7FF5
:1041C00090FF816020CFC111CCCF0E941921682FB0
:1041D000CCCFCF9108956DEE7EEF90E080E00E940D
:1041E000342A60E082E090E00E94262A60E083E0CA
:1041F00090E00E94262A60E084E090E00E94262A57
:1042000060E085E090E00C94262A90E080E00E9437
:10421000202A21E08D3E9E4F09F020E0822F089554
:1042200082E090E00C94182A682F82E090E00C94D1
:10423000262A83E090E00C94182A682F83E090E00F
:104240000C94262A84E090E00C94182A682F84E0CD
:1042500090E00C94262A8091520280FF12C0609157
:10426000110185E0689FB0011124759567957595DA
:10427000679560387105A8F561157105A1F1862F64
:10428000089581FF09C06091110185E0689FB00128
:10429000112475956795EDCF82FF07C060911101DC
:1042A00085E0689FB0011124E4CF209153022223BE
:1042B000A9F0909110016091110185E0689FB00113
:1042C00011242917B0F6269FA001279F500D112415
:1042D000692F70E0CA010E94EA29CBCF65E070E047
:1042E000CECF8FE7089581E008958091520280FF3C
:1042F0000CC060910F0170E0759567957595679595
:104300006115710549F1862F089581FF06C06091FE
:104310000F0170E075956795F3CF60910F0182FDF5
:104320000BC0909153029923A1F060910E018091EE
:104330000F01961738F0682F70E06038710500F3B0
:104340008FE70895899FC001112470E00E94EA2937
:10435000F4CF61E070E0D7CF81E00895803F31F481
:104360000E942B218195809356020895813F19F474
:104370000E942B21F8CF823F31F40E942B2181959E
:10438000809355020895833F19F40E942B21F8CFA2
:10439000893F29F40E9475218093570208958A3F2E
:1043A00021F40E9475218195F7CF8B3F31F40E9453
:1043B000752181958093580208958C3F19F40E94CD
:1043C0007521F8CF843F31F480915402816080934D
:1043D00054020895853F21F4809154028260F7CF02
:1043E000863F21F4809154028460F1CF873F21F40D
:1043F000809154028860EBCF883F21F48091540271
:104400008061E5CF8D3F31F48091520281608093CD
:10441000520208958E3F21F4809152028260F7CFBC
:104420008F3FB9F7809152028460F1CF803FC1F491
:104430008091560287FD109256028091550281119B
:104440000EC08091560281110AC0809157028111DD
:1044500006C080915802811102C010925302089543
:10446000813F29F48091560218162CF3E6CF9091E3
:104470005502823F29F497FFE0CF10925502DDCF1D
:10448000833F19F41916CCF3D8CF893F39F48091C2
:104490005702181694F610925702CFCF8A3F29F48C
:1044A0008091570287FFC9CFF6CF8B3F39F48091B7
:1044B000580287FFC2CF10925802BFCF8C3F29F419
:1044C000809158021816BCF3B8CF843F31F4809124
:1044D00054028E7F80935402B0CF853F21F48091A7
:1044E00054028D7FF7CF863F21F4809154028B7F59
:1044F000F1CF873F21F480915402877FEBCF883F33
:1045000021F4809154028F7EE5CF8D3F31F480916C
:1045100052028E7F8093520290CF8E3F21F4809181
:1045200052028D7FF7CF8F3F09F087CF80915202E3
:104530008B7FF0CF80914A0283FF7EC08AE094E0B7
:104540000E94EF05809154021F928F9385E094E0C2
:104550009F938F930E94880683E094E00E94EF056A
:1045600080915502282F082E000C330B3F938F9318
:1045700080E094E09F938F930E9488068EEF93E0F3
:104580000E94EF0580915602282F082E000C330B55
:104590003F938F938BEF93E09F938F930E948806B6
:1045A00089EF93E00E94EF0580915702282F082E93
:1045B000000C330B3F938F9386EF93E09F938F9381
:1045C0000E94880684EF93E00E94EF0580915802D4
:1045D000282F082E000C330B3F938F9381EF93E02D
:1045E0009F938F930E9488068EEE93E00E94EF05C2
:1045F000809153021F928F938BEE93E09F938F9342
:104600000E94880689EE93E00E94EF058091520295
:104610001F928F9386EE93E09F938F930E9488065C
:1046200083EE93E00E94EF058DB79EB74C960FB6D0
:10463000F8949EBF0FBE8DBF84E592E00E944310A8
:104640000E94CE1D909351028093500208951F93B3
:10465000CF93DF9380915002909151020E94E61D0A
:10466000AC01909153022091120130E0911106C0EB
:10467000209113018AE0289F9001112442175307CB
:1046800080F080915502C091560210915702D0914E
:10469000580281110AC0C11178C0111176C0D11120
:1046A00074C0DF91CF911F9108959F3F19F09F5FD4
:1046B00090935302181624F40E942B2180935502E4
:1046C0008091550287FF05C00E942B218195809320
:1046D00055021C1624F40E942B21809356028091CF
:1046E000560287FF05C00E942B21819580935602B8
:1046F00060915502662331F1C0915602CC2311F12D
:10470000062E000C770B880B990B0E94E52823E3FB
:1047100033E343E35FE30E9449290E94AD2860939D
:1047200055026C2FCC0F770B880B990B0E94E52854
:1047300023E333E343E35FE30E9449290E94AD286A
:1047400060935602111624F40E947521809357023B
:104750008091570287FF05C00E9475218195809343
:1047600057021D1624F40E947521809358028091EF
:10477000580287FF05C00E947521819580935802D9
:10478000DF91CF911F910C949A229F3F09F08FCF18
:10479000A0CF85E0E4E5F2E0DF011D928A95E9F71C
:1047A000109253021092520208958DE296E00E94F8
:1047B000EF051F9281E08F931F9285E08F938FED1D
:1047C00095E09F938F930E9488060F900F900F9013
:1047D0000F900F900F900895833009F445C028F48E
:1047E000813061F0823049F10895853009F46AC062
:1047F00008F451C0863009F47CC0089580911301FB
:10480000482F460F5527551F4F3F510594F4680F09
:1048100060931301809113011F928F9388E195E0BB
:104820009F938F930E9488060F900F900F900F9088
:1048300008958FEF80931301EDCF80911201482FDF
:10484000460F5527551F4F3F510554F4680F60938D
:104850001201809112011F928F9386E095E0E0CFC4
:104860008FEF80931201F5CF80911101482F460FF1
:104870005527551F4F3F510554F4680F60931101A0
:10488000809111011F928F9383EF94E0C9CF8FEF36
:1048900080931101F5CF80911001482F460F5527C5
:1048A000551F4F3F510554F4680F609310018091DC
:1048B00010011F928F938EED94E0B2CF8FEF809313
:1048C0001001F5CF80910F01482F460F5527551F36
:1048D0004F3F510554F4680F60930F0180910F0111
:1048E0001F928F9385EC94E09BCF8FEF80930F0105
:1048F000F5CF80910E01482F460F5527551F4F3F8A
:10490000510554F4680F60930E0180910E011F92BF
:104910008F938AEA94E084CF8FEF80930E01F5CFD6
:104920008330C9F128F4813061F0823019F10895A3
:10493000853009F452C008F43FC0863009F45EC0E7
:10494000089580911301681790F4861B80931301DA
:10495000809113011F928F938BE994E09F938F9323
:104960000E9488060F900F900F900F90089510925C
:104970001301EECF80911201681750F4861B8093CB
:104980001201809112011F928F9389E894E0E6CF83
:1049900010921201F6CF80911101681750F4861B16
:1049A00080931101809111011F928F9386E794E00B
:1049B000D5CF10921101F6CF80911001681750F4F5
:1049C000861B80931001809110011F928F9381E6C6
:1049D00094E0C4CF10921001F6CF80910F016817B8
:1049E00050F4861B80930F0180910F011F928F93CB
:1049F00088E494E0B3CF10920F01F6CF80910E01BE
:104A0000681750F4861B80930E0180910E011F924F
:104A10008F938DE294E0A2CF10920E01F6CFCF9348
:104A2000C82F1F928F9382E397E09F938F930E94EA
:104A3000880661E070E080E090E004C0660F771FB8
:104A4000881F991FCA95D2F70E94C81A0F900F901D
:104A50000F900F90CF910C94B016CF93873208F03F
:104A600043C08E3108F028C28E3009F4C4C1B8F4B6
:104A7000873009F4A6C148F4863009F48FC18EE36B
:104A800099E00E94EF0580E09AC1883009F456C091
:104A90008B30A9F78EE597E00E94EF057DC1863146
:104AA00009F4D3C178F4803151F790914A02892FEB
:104AB000877F93FF886080934A0283FFACC185EBB8
:104AC0009AE090C1893109F4A9C18B31C1F6909166
:104AD0004A02892F8D7F91FF826080934A0281FF75
:104AE00087C18EEE9AE07EC18833A1F250F48932FC
:104AF00021F0853311F0873211F680E00E940F25F6
:104B00004BC18334D1F328F48A3308F4B8CF8953E6
:104B1000F5CF883409F0B3CF0E94B01684E19BE052
:104B20000E94EF059FEF23ED80E3915020408040ED
:104B3000E1F700C000000E94351E2EC189E29BE013
:104B40000E94EF058EE299E00E94EF050E94192174
:104B50001F928F938BE299E09F938F930E94880618
:104B600089E299E00E94EF050E941021C82F86E19A
:104B700099E00E94EF051F92CF9381E199E09F9306
:104B80008F930E9488068FE099E00E94EF0585E0F0
:104B900099E00E94EF058C2F81701F928F9382E025
:104BA00099E09F938F930E94880680E099E00E948D
:104BB000EF0586EF98E00E94EF05C1FB882780F99A
:104BC0001F928F9383EF98E09F938F930E948806A4
:104BD00081EF98E00E94EF0585EE98E00E94EF05D6
:104BE000C2FB882780F91F928F9382EE98E09F93F3
:104BF0008F930E94880680EE98E00E94EF0587ED73
:104C000098E00E94EF05C3FBCC27C0F91F92CF9319
:104C100084ED98E09F938F930E94880682ED98E040
:104C20000E94EF050E942221C82F8EEB98E00E947F
:104C3000EF051F92CF9389EB98E09F938F930E948B
:104C4000880687EB98E00E94EF058EE998E00E94C5
:104C5000EF058C2F81701F928F938BE998E09F93C3
:104C60008F930E9488068DB79EB780960FB6F894F2
:104C70009EBF0FBE8DBF89E998E00E94EF0582E8D4
:104C800098E00E94EF05C1FB882780F91F928F935F
:104C90008FE798E09F938F930E9488068DE798E0B6
:104CA0000E94EF058BE698E00E94EF05C2FB882783
:104CB00080F91F928F9388E698E09F938F930E94CC
:104CC000880686E698E00E94EF0584E598E00E9459
:104CD000EF05C3FB882780F91F928F9381E598E049
:104CE0009F938F930E9488068FE498E00E94EF05BF
:104CF00085E498E00E94EF05C4FB882780F91F92A5
:104D00008F9382E498E09F938F930E94880680E4BB
:104D100098E00E94EF058EE298E00E94EF05C5FB47
:104D2000882780F91F928F938BE298E09F938F934F
:104D30000E94880689E298E00E94EF058DE098E0E5
:104D40000E94EF05C6FB882780F91F928F938AE0A7
:104D500098E09F938F930E94880688E098E00E94D5
:104D6000EF0580E098E00E94EF05C7FBCC27C0F973
:104D70001F92CF938DEF97E09F938F930E948806A9
:104D80008BEF97E00E94EF058DB79EB74C960FB65C
:104D9000F8949EBF0FBE8DBF81E011C080914A0282
:104DA000817F8E7F80934A0287E397E00E94EF0520
:104DB00085E29BE00E94EF0581E080935A02CF914B
:104DC000089580914A0280FF0BC087E09BE00E941B
:104DD000EF0580914A02817F8E7F80934A02DCCF6B
:104DE0008BEF9AE00E94EF0580914A028160F5CF37
:104DF00080EE9AE051CE90914A02892F8B7F92FFEC
:104E0000846080934A0282FF03C081ED9AE0EACF7A
:104E100081EC9AE041CE88EA9AE03ECE89E99AE0B8
:104E20000E94EF0580E79AE00E94EF058BE39AE08D
:104E30000E94EF0584E19AE00E94EF0584ED99E07D
:104E40000E94EF0589EA99E027CE8BE999E00E945C
:104E5000EF050E94EB0F1F928F9381E899E09F93DB
:104E60008F930E94880680910B011F928F938AE690
:104E700099E09F938F930E948806809173011F92FF
:104E80008F9387E599E09F938F930E9488060E94F5
:104E9000DA1D9F938F937F936F9380E499E09F93A4
:104EA0008F930E9488068DB79EB742960FB6F894EE
:104EB0009EBF0FBE8DBF70CF8D5120CE80E0089574
:104EC0000C945E27CF93C82F80915A028130D1F085
:104ED00038F0823009F44DC010925A0280E010C0C0
:104EE000E0910C01F0910D0180818232B9F78C2F95
:104EF0000E945E2781111EC08C2F0E942D2581707B
:104F0000CF910895E0910C01F0910D0180818232E2
:104F100071F38C2F0E94602781111BC0C431D9F01E
:104F200060F4CB3071F0C031D1F088E297E00E949C
:104F3000EF0513C081E090E0E2CFC93261F0C833E1
:104F4000A1F787E397E00E94EF058EE297E00E94C9
:104F5000EF0581E0D4CF10925A0280E0D0CF0E94BA
:104F6000D5238AE297E00E94EF0582E080935A02FF
:104F7000F0CFC432C8F4CE3108F0BEC0CB30E1F07F
:104F800040F4C73009F4CFC08CEC95E00E94EF05E7
:104F900026C0C331C1F1C431B9F7809159028823C9
:104FA00051F1109259020AC0CB3409F4BAC0C8F4C6
:104FB000C93299F3C83341F70E94D5238091590231
:104FC000882309F4C7C01F928F9386EC95E09F93C6
:104FD0008F930E9488060F900F900F900F9081E0A2
:104FE0008FCFC13509F497C0C23509F48EC0CE34D5
:104FF00059F66AE091C08BED95E00E94EF0581E0E3
:1050000080935A027DCF85EB95E00E94EF0583EAFD
:1050100095E00E94EF05809113011F928F9380EA23
:1050200095E09F938F930E9488068EE995E00E94F9
:10503000EF058CE895E00E94EF05809112011F9228
:105040008F9389E895E09F938F930E94880687E865
:1050500095E00E94EF0588E795E00E94EF058091BA
:1050600011011F928F9385E795E09F938F930E9484
:10507000880683E795E00E94EF0582E695E00E94AE
:10508000EF05809110011F928F938FE595E09F931C
:105090008F930E9488068DE595E00E94EF0588E4D5
:1050A00095E00E94EF0580910F011F928F9385E498
:1050B00095E09F938F930E94880683E495E00E9479
:1050C000EF058CE295E00E94EF0580910E011F92A2
:1050D0008F9389E295E09F938F930E94880687E2E1
:1050E00095E00E94EF058DB79EB748960FB6F894ED
:1050F0009EBF0FBE8DBF62CFCE51EC2FF0E0E75DBB
:10510000FE4F80818093590259CF61E0809159020E
:105110000E94EC2353CF61E0809159020E949024B9
:105120004DCF6AE0F3CF8EE18093130182E3809349
:1051300012018AE08093110184E18093100188E0DC
:1051400080930F0188E280930E018EEC95E00E941F
:10515000EF0534CF83EC95E019CF0E94B428689412
:10516000B1110C94432908950E94282988F09F5773
:1051700098F0B92F9927B751B0F0E1F0660F771F7B
:10518000881F991F1AF0BA95C9F714C0B13091F071
:105190000E944229B1E008950C944229672F782F8C
:1051A0008827B85F39F0B93FCCF386957795679536
:1051B000B395D9F73EF490958095709561957F4FA2
:1051C0008F4F9F4F0895E89409C097FB3EF4909548
:1051D0008095709561957F4F8F4F9F4F9923A9F0D0
:1051E000F92F96E9BB279395F6958795779567955F
:1051F000B795F111F8CFFAF4BB0F11F460FF1BC0A3
:105200006F5F7F4F8F4F9F4F16C0882311F096E935
:1052100011C0772321F09EE8872F762F05C06623E3
:1052200071F096E8862F70E060E02AF09A95660F9C
:10523000771F881FDAF7880F9695879597F9089555
:1052400057FD9058440F551F59F05F3F71F0479537
:10525000880F97FB991F61F09F3F79F0879508951C
:10526000121613061406551FF2CF4695F1DF08C03B
:10527000161617061806991FF1CF86957105610558
:1052800008940895E894BB2766277727CB0197F900
:1052900008950E945C290C94CD290E94BF2938F002
:1052A0000E94C62920F0952311F00C94B6290C9485
:1052B000BC2911240C9443290E94202970F3959F46
:1052C000C1F3950F50E0551F629FF001729FBB27FD
:1052D000F00DB11D639FAA27F00DB11DAA1F649F99
:1052E0006627B00DA11D661F829F2227B00DA11D4C
:1052F000621F739FB00DA11D621F839FA00D611DD2
:10530000221F749F3327A00D611D231F849F600DF2
:10531000211D822F762F6A2F11249F5750409AF01B
:10532000F1F088234AF0EE0FFF1FBB1F661F771FA7
:10533000881F91505040A9F79E3F510580F00C9472
:10534000B6290C9443295F3FE4F3983ED4F3869545
:1053500077956795B795F795E7959F5FC1F7FE2B12
:10536000880F911D9695879597F9089597F99F67EE
:1053700080E870E060E008959FEF80EC08950024DD
:105380000A941616170618060906089500240A94AA
:1053900012161306140605060895092E0394000C30
:1053A00011F4882352F0BB0F40F4BF2B11F460FFBF
:1053B00004C06F5F7F4F8F4F9F4F0895991B79E017
:1053C00004C0991F961708F0961B881F7A95C9F795
:1053D0008095089597FB072E16F4009407D077FD6B
:1053E00009D00E94042A07FC05D03EF490958195CF
:1053F0009F4F0895709561957F4F0895EE0FFF1FA1
:105400000590F491E02D0994AA1BBB1B51E107C044
:10541000AA1FBB1FA617B70710F0A61BB70B881F44
:10542000991F5A95A9F780959095BC01CD010895D3
:10543000F999FECF92BD81BDF89A992780B508955C
:10544000A8E1B0E042E050E00C943B2A262FF99905
:10545000FECF1FBA92BD81BD20BD0FB6F894FA9A57
:10546000F99A0FBE019608950E94262A272F0C94C0
:10547000272ADC01CB01FC01F999FECF06C0F2BD61
:10548000E1BDF89A319600B40D9241505040B8F702
:065490000895F894FFCF1F
:10549600055E0851092C09F808C4080140022808CD
:1054A600140A321E404D36221603C90293027102B7
:1054B600FD0116022F024802000102030405060739
:0454C60008090000D1
:00000001FF
